{
  "contractName": "Hello",
  "abi": [
    {
      "constant": true,
      "inputs": [],
      "name": "message",
      "outputs": [
        {
          "internalType": "string",
          "name": "",
          "type": "string"
        }
      ],
      "payable": false,
      "stateMutability": "view",
      "type": "function"
    },
    {
      "constant": false,
      "inputs": [
        {
          "internalType": "string",
          "name": "_message",
          "type": "string"
        }
      ],
      "name": "setMessage",
      "outputs": [],
      "payable": false,
      "stateMutability": "nonpayable",
      "type": "function"
    },
    {
      "constant": true,
      "inputs": [],
      "name": "sayHi",
      "outputs": [
        {
          "internalType": "string",
          "name": "",
          "type": "string"
        }
      ],
      "payable": false,
      "stateMutability": "view",
      "type": "function"
    }
  ],
  "bytecode": "0x60c0604052600260808190527f686900000000000000000000000000000000000000000000000000000000000060a090815261003e9160009190610051565b5034801561004b57600080fd5b506100ec565b828054600181600116156101000203166002900490600052602060002090601f016020900481019282601f1061009257805160ff19168380011785556100bf565b828001600101855582156100bf579182015b828111156100bf5782518255916020019190600101906100a4565b506100cb9291506100cf565b5090565b6100e991905b808211156100cb57600081556001016100d5565b90565b610398806100fb6000396000f3fe608060405234801561001057600080fd5b506004361061005d577c010000000000000000000000000000000000000000000000000000000060003504630c49c36c8114610062578063368b8772146100df578063e21f37ce14610187575b600080fd5b61006a61018f565b6040805160208082528351818301528351919283929083019185019080838360005b838110156100a457818101518382015260200161008c565b50505050905090810190601f1680156100d15780820380516001836020036101000a031916815260200191505b509250505060405180910390f35b610185600480360360208110156100f557600080fd5b81019060208101813564010000000081111561011057600080fd5b82018360208201111561012257600080fd5b8035906020019184600183028401116401000000008311171561014457600080fd5b91908080601f016020809104026020016040519081016040528093929190818152602001838380828437600092019190915250929550610226945050505050565b005b61006a61023d565b60008054604080516020601f600260001961010060018816150201909516949094049384018190048102820181019092528281526060939092909183018282801561021b5780601f106101f05761010080835404028352916020019161021b565b820191906000526020600020905b8154815290600101906020018083116101fe57829003601f168201915b505050505090505b90565b80516102399060009060208401906102cb565b5050565b6000805460408051602060026001851615610100026000190190941693909304601f810184900484028201840190925281815292918301828280156102c35780601f10610298576101008083540402835291602001916102c3565b820191906000526020600020905b8154815290600101906020018083116102a657829003601f168201915b505050505081565b828054600181600116156101000203166002900490600052602060002090601f016020900481019282601f1061030c57805160ff1916838001178555610339565b82800160010185558215610339579182015b8281111561033957825182559160200191906001019061031e565b50610345929150610349565b5090565b61022391905b80821115610345576000815560010161034f56fea265627a7a72315820987d466befa07eb4c0ad90451d8a0a043530865a8b17aaef16f8afe6467f79a964736f6c63430005100032",
  "source": "contract Hello {\r\n    string public message = \"hi\";\r\n\r\n    function setMessage(string memory _message) public {\r\n        message = _message;\r\n    }\r\n\r\n    function sayHi() public view returns (string memory) {\r\n        return message;\r\n    }\r\n}\r\n",
  "sourcePath": "C:/Users/sakac/Desktop/GamblingContract/contracts/Hello.sol",
  "compiler": {
    "name": "solc",
    "version": "0.5.16+commit.9c3226ce.Emscripten.clang"
  },
  "schemaVersion": "3.3.4",
  "updatedAt": "2021-04-24T17:41:22.229Z",
  "devdoc": {
    "methods": {}
  },
  "userdoc": {
    "methods": {}
  }
}