{
  "contractName": "NotSafe",
  "abi": [
    {
      "constant": true,
      "inputs": [],
      "name": "money",
      "outputs": [
        {
          "internalType": "uint256",
          "name": "",
          "type": "uint256"
        }
      ],
      "payable": false,
      "stateMutability": "view",
      "type": "function"
    },
    {
      "constant": true,
      "inputs": [],
      "name": "porez",
      "outputs": [
        {
          "internalType": "uint256",
          "name": "",
          "type": "uint256"
        }
      ],
      "payable": false,
      "stateMutability": "view",
      "type": "function"
    }
  ],
  "bytecode": "0x601060005560c0604052600960808190527f61646d696e31323334000000000000000000000000000000000000000000000060a09081526100439160019190610056565b5034801561005057600080fd5b506100f1565b828054600181600116156101000203166002900490600052602060002090601f016020900481019282601f1061009757805160ff19168380011785556100c4565b828001600101855582156100c4579182015b828111156100c45782518255916020019190600101906100a9565b506100d09291506100d4565b5090565b6100ee91905b808211156100d057600081556001016100da565b90565b60b1806100ff6000396000f3fe6080604052348015600f57600080fd5b5060043610604e577c010000000000000000000000000000000000000000000000000000000060003504634ddd108a81146053578063fd26efae14606b575b600080fd5b60596071565b60408051918252519081900360200190f35b60596077565b60005481565b60148156fea265627a7a7231582086c81e31e24560e13535bd0c422bbf877c8056e9b95f816024d8a0c1b138fccd64736f6c63430005100032",
  "source": "contract NotSafe {\r\n    uint256 public money = 16;\r\n    uint256 public constant porez = 20;\r\n    string private password = \"admin1234\";\r\n}\r\n",
  "sourcePath": "C:/Users/sakac/Desktop/GamblingContract/contracts/NotSoPrivate.sol",
  "compiler": {
    "name": "solc",
    "version": "0.5.16+commit.9c3226ce.Emscripten.clang"
  },
  "schemaVersion": "3.3.4",
  "updatedAt": "2021-04-24T17:41:22.230Z",
  "devdoc": {
    "methods": {}
  },
  "userdoc": {
    "methods": {}
  }
}